:100000000C945F000C9487000C9487000C9487007C
:100010000C9487000C9487000C9487000C943B058B
:100020000C9487000C9487000C9487000C94870034
:100030000C9487000C9487000C9487000C94870024
:100040000C9497050C9487000C9487000C948700FF
:100050000C9487000C9487000C9487000C94870004
:100060000C9487000C948700000000080002010037
:100070000003040700000000000000000200000070
:1000800000250028002B0000000000240027002A83
:100090000004040404040404040202020202020331
:1000A000030303030301020408102040800102043B
:1000B000081020010204081020009106D606112421
:1000C0001FBECFEFD4E0DEBFCDBF11E0A0E0B1E0B6
:1000D000ECEFF2E102C005900D92A636B107D9F718
:1000E00021E0A6E6B1E001C01D92A93FB207E1F709
:1000F00010E0CEE5D0E004C02197FE010E942D075C
:10010000CD35D107C9F70E94E1050C9471090C9413
:10011000000090E0FC01EB55FF4F2491FC01EF56ED
:10012000FF4F8491882399F090E0880F991FFC017C
:10013000E957FF4FA591B491FC01E358FF4F85911A
:1001400094918FB7F894EC91E22BEC938FBF0895C4
:100150008F929F92AF92BF92CF92DF92EF92FF92D7
:10016000CF9390910001981721F09F3F09F0E8C1CB
:1001700004C0ECE7F0E0C4917DC080930001ECE79F
:10018000F0E0C491CF3F09F4DBC1C13029F1C230A6
:1001900009F449C0C1116EC014BC15BC94B592607D
:1001A00094BD95B5916095BD282F30E0F901EF56CB
:1001B000FF4FE491F0E0EE0FFF1FE358FF4F459132
:1001C00054915093E8014093E701F901EB55FF4F3B
:1001D000E491E093E60150C01092800010928100FB
:1001E000909181009860909381009091810091603E
:1001F00090938100282F30E0F901EF56FF4FE491F2
:10020000F0E0EE0FFF1FE358FF4F459154915093DC
:10021000E5014093E401F901EB55FF4FE491E093D0
:10022000E301C1E029C01092B0001092B10090919A
:10023000B00092609093B0009091B1009160909363
:10024000B100282F30E0F901EF56FF4FE491F0E0C4
:10025000EE0FFF1FE358FF4F459154915093E20179
:100260004093E101F901EB55FF4FE491E093E00188
:10027000C2E002C0C7FD64C14B010E948900A12CED
:10028000B12C8C2F8D7F09F0A0C060E072E18AE76D
:1002900090E0A50194010E94EC0669017A01DA015F
:1002A000C9010197A109B1098F3F9105A105B105C8
:1002B00009F008F442C060E472E48FE090E0A50128
:1002C00094010E94EC06DA01C9010197A109B10964
:1002D000C230E1F48F3F9105A105B10509F008F4A2
:1002E0002DC160E970ED83E090E0A50194010E94CA
:1002F000EC06DA01C9010197A109B1098F3F910507
:10030000A105B10509F088F523E058C08F3F91059C
:10031000A105B105A1F098F068E478EE81E090E0E5
:10032000A50194010E94EC06DA01C9010197A10917
:10033000B109CC2309F4B6C0F9C021E001C022E024
:10034000CC2371F03BC0D701C6012AE0B595A79533
:10035000979587952A95D1F70197A109B10925E0CD
:1003600035B5387F232B25BD61C068E478EE81E088
:1003700090E0A50194010E94EC06DA01C901019701
:10038000A109B1098F3F9105A105B10509F008F454
:1003900087C064E274EF80E090E0A50194010E94C0
:1003A000EC06DA01C9010197A109B1098F3F910556
:1003B000A105B10511F008F093C025E03091B1001E
:1003C000387F232B2093B1002BC060E072E18AE7D5
:1003D00090E0A50194010E94EC06DA01C9010197A1
:1003E000A109B109009721E0A207B10578F068E4FE
:1003F00078EE81E090E0A50194010E94EC06DA011C
:10040000C9010197A109B10933E001C031E0C13050
:1004100039F420918100287F232B2093810018C07C
:10042000C130B1F0C23049F1C1118AC087BD8FEF30
:100430009FEFDC018093F1019093F201A093F3010F
:10044000B093F40180916E00826080936E0078C05A
:1004500090938900809388008FEF9FEFDC01809359
:10046000ED019093EE01A093EF01B093F001809124
:100470006F00826080936F0063C08093B3008FEF42
:100480009FEFDC018093E9019093EA01A093EB01D7
:10049000B093EC018091700082608093700050C036
:1004A00024E08CCF8F3F9105A105B105B9F0B0F0E4
:1004B00062E17AE780E090E0A50194010E94EC06F9
:1004C000DA01C9010197A109B1098F3F9105A10581
:1004D000B10511F008F037CF24E042CF23E040CF40
:1004E00062E17AE780E090E0A50194010E94EC06C9
:1004F000DA01C9010197A109B1098F3F9105A10551
:10050000B10591F088F0D701C6013AE0B595A795FD
:10051000979587953A95D1F70197A109B109CC2311
:1005200009F41DCF27E04ACF26E00ACF8F3F91057F
:10053000A105B10509F0A0F624E002CF22E03ECFEC
:10054000CF91FF90EF90DF90CF90BF90AF909F90B2
:100550008F90089590E0FC01E859FF4F3491FC0121
:10056000EB55FF4F2491FC01EF56FF4FE491EE2332
:1005700009F43BC0332339F1333091F038F4313092
:10058000A9F0323001F584B58F7D12C0373091F07B
:100590003830A1F03430B9F4809180008F7D03C0F1
:1005A000809180008F77809380000DC084B58F7715
:1005B00084BD09C08091B0008F7703C08091B000E6
:1005C0008F7D8093B000F0E0EE0FFF1FE358FF4FE8
:1005D000A591B4918FB7F894EC91611103C0209567
:1005E0002E2301C02E2B2C938FBF089590910001D4
:1005F000981324C0ECE7F0E0E4919FEF90930001A2
:10060000E130B9F098F0E230C9F4909170009D7F2C
:100610009093700091E09093B0009091B100987F1A
:1006200094609093B1001092B30008C010926E00D5
:1006300005C090916F009D7F90936F0060E00C94D7
:10064000AA0260E0FC0182810C94AA0261E0FC0134
:1006500082810C94AA02FC0182810C94F602DC01D6
:10066000ED91FC910280F381E02D0994FC0160ADD5
:1006700071AD6F3F8FEF780719F482810C94F60209
:1006800082810C94A800FC0166A977A982810C9450
:10069000A8000895089508950895EF92FF920F938A
:1006A0001F93CF93DC017B0128E030E050E8C0E0ED
:1006B00080E090E071E0E52FE42309F470E0CC23C2
:1006C000E1F0FC01EE0FFF1FEE0FFF1FEE0DFF1D0F
:1006D000772329F016960D911C91179704C0149654
:1006E0000D911C9115971183008314966D917C9147
:1006F000159773836283019601C0C72F56952150C9
:100700003109C1F6CF911F910F91FF90EF9008959D
:10071000CF93DF93EC018FE9860F8A3138F4A62F4F
:10072000660FBB0BAA52BF4F4C9143C080ED860FA2
:100730008A3028F0EBE2F1E080E090E02EC0062E57
:10074000000C770BAB014053510981E04630510555
:100750001CF080E045505109AC81BD81FE0120E0D4
:1007600030E090E061E070E02417350714F060E0BD
:1007700070E06817790719F46C817D8102C06E8181
:100780007F8177876687B18BA08B2F5F3F4F349631
:100790002530310539F714C001962081222399F0C4
:1007A00032962613F9CF880F991FFC01E55DFE4FA5
:1007B0004181BE01625F7F4FCE010E944D039C01CB
:1007C00080E090E004C081E090E021E030E04E81E4
:1007D0005F81220F331F220F331FFE01E20FF31F31
:1007E0005587448717861686DF91CF910895CF925B
:1007F000DF92EF92FF92CF93DF93EC018FB7F894E3
:10080000C0906C01D0906D01E0906E01F0906F018E
:100810008FBF8AA99BA9ACA9BDA9C81AD90AEA0A9F
:10082000FB0A28A939A9F901EE0FFF1FEC0FFD1FE4
:1008300086859785092E000CAA0BBB0BC816D90616
:10084000EA06FB0608F44FC02F5F3F4F39AB28ABD9
:1008500080899189892B69F58EA59FA501969FA70F
:100860008EA72C853D858217930780F0E881F9815A
:100870000280F381E02DCE010995E881F98106809F
:10088000F781E02DCE01099580E02EC028853985BD
:100890002115310529F410926601E6E6F1E003C066
:1008A000F901E80FF91F6081CE010E94880399AB1E
:1008B00088AB8AA99BA9ACA9BDA9C80ED91EEA1EFE
:1008C000FB1ECAAADBAAECAAFDAA88A9E881F981C5
:1008D00080FD04C00190F081E02D03C00280F3810F
:1008E000E02DCE01099581E0DF91CF91FF90EF904F
:1008F000DF90CF900895CF93DF93EC011FA61EA643
:100900008C859D85892B71F1E885F985309721F4D7
:1009100010926601E6E6F1E06081CE010E94880354
:1009200099AB88ABE881F9810480F581E02DCE0197
:10093000099588A980FD07C0E881F9810190F081BF
:10094000E02DCE0109952FB7F89480916C0190911C
:100950006D01A0916E01B0916F012FBF8AAB9BAB6F
:10096000ACABBDABDF91CF910895EF92FF920F93A7
:100970001F93CF93DF93EC017B018A0188819981DA
:10098000009729F02A813B8124173507F8F4B80134
:100990006F5F7F4F0E946008009759F099838883AA
:1009A0001B830A832C813D81232B81F4FC0110825F
:1009B0000DC088819981009711F00E94C8071982A3
:1009C00018821D821C821B821A8207C01D830C8321
:1009D000B701888199810E943309CE01DF91CF91BF
:1009E0001F910F91FF90EF900895CF93DF93EC014B
:1009F000FB01089686179707B1F060817181611538
:100A0000710529F0448155810E94B5040CC0888588
:100A10009985009711F00E94C807198618861D86CF
:100A20001C861B861A868C859D859FA78EA788A904
:100A300080FD09C0E881F9810280F381E02DCE01BB
:100A4000DF91CF910994DF91CF910895FC0111823C
:100A5000108213821282158214826115710551F081
:100A6000FB0101900020E9F73197AF01461B570BBE
:100A70000C94B50408951F920F920FB60F92112493
:100A80002F933F934F935F936F937F938F939F9396
:100A9000AF93BF93EF93FF938091E9019091EA01A7
:100AA000A091EB01B091EC01892B8A2B8B2B51F19A
:100AB0008091E001E091E101F091E20190818927CC
:100AC00080838091E9019091EA01A091EB01B091BE
:100AD000EC01181619061A061B06C4F48091E901E8
:100AE0009091EA01A091EB01B091EC010197A1096D
:100AF000B1098093E9019093EA01A093EB01B093CF
:100B0000EC0104C0809100010E94F602FF91EF9178
:100B1000BF91AF919F918F917F916F915F914F9115
:100B20003F912F910F900FBE0F901F9018951F921D
:100B30000F920FB60F9211242F933F938F939F9391
:100B4000AF93BF9380916C0190916D01A0916E0164
:100B5000B0916F0130916B0123E0230F2D3720F40A
:100B60000196A11DB11D05C026E8230F0296A11D07
:100B7000B11D20936B0180936C0190936D01A09344
:100B80006E01B0936F018091670190916801A0910F
:100B90006901B0916A010196A11DB11D80936701A1
:100BA00090936801A0936901B0936A01BF91AF91DE
:100BB0009F918F913F912F910F900FBE0F901F909B
:100BC0001895CF93DF9300D000D000D0CDB7DEB71B
:100BD000789484B5826084BD84B5816084BD85B518
:100BE000826085BD85B5816085BD80916E00816024
:100BF00080936E00109281008091810082608093CA
:100C000081008091810081608093810080918000CB
:100C10008160809380008091B10084608093B100F6
:100C20008091B00081608093B00080917A008460F0
:100C300080937A0080917A00826080937A0080911C
:100C40007A00816080937A0080917A008068809336
:100C50007A001092C1008091AC010E9489008091BD
:100C600072010E94890061E571E0CE0101960E9447
:100C70002605BE016F5F7F4F8AEA91E00E94F5046E
:100C800089819A810E94C80761E571E0CE010196D1
:100C90000E942605BE016F5F7F4F80E791E00E94B2
:100CA000F50489819A810E94C8078AEA91E00E942E
:100CB0007B0480E791E00E947B0400E010E020913B
:100CC000D8013091D9018091B6019091B7012817D0
:100CD000390728F08AEA91E00E947B0406C08AEA7C
:100CE00091E00E94F7038823A9F320919E0130919F
:100CF0009F0180917C0190917D012817390728F090
:100D000080E791E00E947B0406C080E791E00E94AA
:100D1000F7038823A9F30115110589F20E94000049
:100D2000CECF0F931F93CF93DF93CAEAD1E007E1B1
:100D300011E0198308831B821A8265E671E082EB59
:100D400091E00E94260584E690E09D838C838CE2EE
:100D500091E09F838E838BE091E099838883C0E745
:100D6000D1E01983088382E090E09B838A8365E663
:100D700071E088E791E00E9426058AE390E09D8378
:100D80008C838EEA90E09F838E8383E291E0998347
:100D9000888380E793E09FAB8EAB8EE690E099AFBF
:100DA00088AFDF91CF911F910F910895CF93DF937B
:100DB000E0E7F1E0C7E1D1E0D183C0838085918590
:100DC0000E94C807EAEAF1E0D183C083808591855B
:100DD000DF91CF910C94C807052E97FB1EF4009469
:100DE0000E94030757FD07D00E940B0707FC03D0A2
:100DF0004EF40C94030750954095309521953F4F44
:100E00004F4F5F4F089590958095709561957F4FF6
:100E10008F4F9F4F0895A1E21A2EAA1BBB1BFD0105
:100E20000DC0AA1FBB1FEE1FFF1FA217B307E407C9
:100E3000F50720F0A21BB30BE40BF50B661F771F21
:100E4000881F991F1A9469F7609570958095909501
:100E50009B01AC01BD01CF010895EE0FFF1F05906E
:100E6000F491E02D0994CF93DF938230910510F433
:100E700082E090E0E091F701F091F80120E030E0AD
:100E8000C0E0D0E0309711F14081518148175907F7
:100E9000C0F04817590761F482819381209719F0B7
:100EA0009B838A832BC09093F8018093F70126C01F
:100EB0002115310519F04217530718F49A01BE01A4
:100EC000DF01EF010280F381E02DDCCF2115310538
:100ED00009F1281B390B2430310590F412968D91BD
:100EE0009C9113976115710521F0FB019383828317
:100EF00004C09093F8018093F701FD01329644C03D
:100F0000FD01E20FF31F81939193225031092D933C
:100F10003C933AC02091F5013091F601232B41F426
:100F200020910301309104013093F6012093F501E3
:100F300020910101309102012115310541F42DB7B5
:100F40003EB74091050150910601241B350BE091FD
:100F5000F501F091F601E217F307A0F42E1B3F0B09
:100F60002817390778F0AC014E5F5F4F241735071B
:100F700048F04E0F5F1F5093F6014093F5018193A7
:100F8000919302C0E0E0F0E0CF01DF91CF910895AE
:100F90000F931F93CF93DF93009709F48CC0FC014C
:100FA0003297138212820091F7011091F801011516
:100FB000110581F420813181820F931F2091F50169
:100FC0003091F6012817390779F5F093F601E0938F
:100FD000F50171C0D80140E050E0AE17BF0750F4F2
:100FE00012962D913C911397AD012115310509F110
:100FF000D901F3CF9D01DA013383228360817181AE
:10100000860F971F8217930769F4EC0128813981B5
:10101000260F371F2E5F3F4F318320838A819B81AC
:1010200093838283452B29F4F093F801E093F70131
:1010300042C01396FC93EE931297ED01499159919A
:101040009E01240F351FE217F30771F4808191810F
:10105000840F951F029611969C938E9382819381A3
:1010600013969C938E931297E0E0F0E0D8011296CD
:101070008D919C911397009719F0F8018C01F6CF90
:101080008D919C9198012E5F3F4F820F931F20916D
:10109000F5013091F6012817390769F4309729F4E2
:1010A0001092F8011092F70102C01382128210937D
:1010B000F6010093F501DF91CF911F910F910895F3
:1010C000A0E0B0E0E6E6F8E00C943E09EC01009701
:1010D00021F4CB010E943307B8C0FC01E60FF71FD3
:1010E0009C0122503109E217F30708F4ACC0D90182
:1010F0000D911C91119706171707B0F005301105D7
:1011000008F49FC0C80104978617970708F499C090
:1011100002501109061B170B019311936D937C93D9
:10112000CF010E94C8078DC05B01A01AB10A4C0113
:10113000800E911EA091F701B091F80140E050E0BF
:10114000E12CF12C109709F44AC0A815B905D1F586
:101150006D907C901197630182E0C80ED11CCA1477
:10116000DB0480F1A3014A195B096A0182E0C80E21
:10117000D11C1296BC9012971396AC91B5E0CB1689
:10118000D10440F0B282A38351834083D9016D938F
:101190007C930AC00E5F1F4FC301800F911FF9019E
:1011A00091838083EB2DFA2FE114F10431F0D70104
:1011B0001396FC93EE93129744C0F093F801E093DA
:1011C000F7013FC08D919C9111974817590708F47A
:1011D000AC017D0112960D90BC91A02DB3CF8091F2
:1011E000F5019091F60188159905E1F44617570726
:1011F000C8F48091010190910201009741F48DB7EC
:101200009EB74091050150910601841B950BE8178C
:10121000F907C8F4F093F601E093F501F901718341
:1012200060830FC0CB010E9433077C01009759F007
:10123000A801BE010E942A09CE010E94C807C70169
:1012400004C0CE0102C080E090E0CDB7DEB7EEE092
:101250000C945A09FB01DC0102C001900D9241502F
:101260005040D8F70895FB01DC0101900D92002059
:10127000E1F708952F923F924F925F926F927F9283
:101280008F929F92AF92BF92CF92DF92EF92FF9296
:101290000F931F93CF93DF93CDB7DEB7CA1BDB0B42
:1012A0000FB6F894DEBF0FBECDBF09942A883988E7
:1012B00048885F846E847D848C849B84AA84B984EE
:1012C000C884DF80EE80FD800C811B81AA81B981FA
:1012D000CE0FD11D0FB6F894DEBF0FBECDBFED010E
:1012E000089510E0CEE5D0E004C0FE010E942D0775
:0C12F0002196CF35D107C9F7F894FFCF45
:1012FC00FF0000F901800000000000260321034AD2
:10130C00034903000000004C034B034A034903004C
:10131C00000000430336032F032B032E553F4C5381
:10132C00454B364231000105181A0C02120E1004FE
:10133C00170D1407060F161D0A080309110B191BAC
:10134C001C2F2F206469676974616C206964656166
:06135C0074696F6E2000B1
:103800000C94341C0C94511C0C94511C0C94511CA1
:103810000C94511C0C94511C0C94511C0C94511C74
:103820000C94511C0C94511C0C94511C0C94511C64
:103830000C94511C0C94511C0C94511C0C94511C54
:103840000C94511C0C94511C0C94511C0C94511C44
:103850000C94511C0C94511C0C94511C0C94511C34
:103860000C94511C0C94511C11241FBECFEFD4E0BA
:10387000DEBFCDBF11E0A0E0B1E0E4EAFEE302C0AC
:1038800005900D92A230B107D9F712E0A2E0B1E0A5
:1038900001C01D92AD30B107E1F70E94ED1C0C9400
:1038A000511F0C94001C482F10920A0280E08417CC
:1038B000E0F4582F2D9A28EE33E080E991E001974B
:1038C000F1F721503040C9F72D9828EE33E080E918
:1038D00091E00197F1F721503040C9F7852F8F5FB4
:1038E000582F841738F380930A020895EF92FF92BD
:1038F0000F931F93EE24FF2487018091C00087FD62
:1039000017C00894E11CF11C011D111D81E0E8168F
:1039100082E1F8068AE7080780E0180770F3E09173
:103920000201F091030109958091C00087FFE9CF62
:103930008091C600992787FD90951F910F91FF9068
:10394000EF900895982F8091C00085FFFCCF909351
:10395000C60008950E94761C803271F080910401A7
:103960008F5F80930401853009F00895E091020192
:10397000F09103010995089584E10E94A21C80E161
:103980000E94A21C0895CF93C82F0E94761C8032FB
:1039900041F0809104018F5F80930401853081F4B0
:1039A0000AC084E10E94A21C8C2F0E94A21C80E10C
:1039B0000E94A21C05C0E0910201F091030109954B
:1039C000CF910895CF93C82FC150CF3F21F00E94CF
:1039D000761CC150E0F7CF910895CFEFD4E0DEBF61
:1039E000CDBF000083E38093C4001092C50088E13E
:1039F0008093C10086E08093C2005098589A259A1F
:103A000083E00E94531C0E94761C8033B1F1813305
:103A1000B9F1803409F455C0813409F45BC08234B3
:103A200009F46DC0853409F470C0803531F18235F8
:103A300021F1813511F1853509F46BC0863509F422
:103A400073C0843609F47AC0843709F4CEC0853750
:103A500009F429C1863709F44AC0809104018F5FB7
:103A600080930401853079F6E0910201F091030121
:103A700009950E94761C803351F60E94AA1CC3CF80
:103A80000E94761CC82F803241F784E10E94A21C5C
:103A900081E40E94A21C86E50E94A21C82E50E948D
:103AA000A21C8C2F0E94A21C89E40E94A21C83E508
:103AB0000E94A21C80E50E94A21C80E10E94A21C20
:103AC000A2CF0E94761C8638C0F20E94761C0E940B
:103AD000AA1C99CF0E94761C803809F486C18138CF
:103AE00009F487C1823809F488C1883921F080E05F
:103AF0000E94C31C88CF83E00E94C31C84CF84E152
:103B00000E94E21C0E94AA1C7ECF85E00E94E21C5B
:103B1000F9CF0E94761C809306010E94761C809348
:103B200007010E94AA1C6FCF0E94761C803309F403
:103B3000CAC083E00E94E21C80E0DACF0E94761CBB
:103B4000809309020E94761C8093080280910C02E7
:103B50008E7F80930C020E94761C853409F4C4C0C9
:103B600000E010E0809108029091090218161906F1
:103B700070F4C8E0D1E00E94761C89930F5F1F4F5C
:103B8000809108029091090208171907A0F30E947A
:103B9000761C803209F061CF80910C0280FFAEC0AC
:103BA000E0910601F0910701EE0FFF1F00E010E029
:103BB00020910802309109021216130680F4A8E041
:103BC000B1E0F999FECFF2BDE1BD8D9180BDFA9AC9
:103BD000F99A31960F5F1F4F0217130790F3F09376
:103BE0000701E093060184E166CF0E94761C809372
:103BF00009020E94761C8093080280910601909130
:103C00000701880F991F90930701809306010E9476
:103C1000761C853409F46EC080910C028E7F8093EF
:103C20000C020E94761C803209F0EDCE84E10E94E5
:103C3000A21C00E010E02091080230910902121647
:103C4000130608F03ACFE0910601F0910701809148
:103C50000C0280FF1FC0F999FECFF2BDE1BDF89ABA
:103C600080B50E94A21CE0910601F09107013196F7
:103C7000F0930701E09306012091080230910902B8
:103C80000F5F1F4F0217130708F017CF80910C0228
:103C900080FDE1CF869580FFB4C03196F093070197
:103CA000E0930601EDCF0E94761C803209F0D5CE5C
:103CB00084E10E94A21C8EE10E94A21C84E90E9461
:103CC000A21C86E0F8CE0E94761C0E94761CC82FAB
:103CD0000E94761CCC2309F47CC0C13009F47DC05D
:103CE00086E00E94C31C8FCE80910C02816080937D
:103CF0000C0236CF80910C02816091CF8091070138
:103D000087FD6FC010920B02809106019091070110
:103D1000880F991F909307018093060180910802F4
:103D200080FF09C08091080290910902019690934A
:103D3000090280930802F894F999FECF1127E091C7
:103D40000601F0910701C8E0D1E08091080290914E
:103D50000902103091F40091570001700130D9F33D
:103D600003E000935700E89500915700017001307F
:103D7000D9F301E100935700E8950990199000915B
:103D8000570001700130D9F301E000935700E89526
:103D90001395103498F011270091570001700130ED
:103DA000D9F305E000935700E895009157000170A2
:103DB0000130D9F301E100935700E895329602975C
:103DC00009F0C7CF103011F00296E5CF112484E13D
:103DD00072CE8EE10E94C31C16CE84E90E94C31CE1
:103DE00012CE81E080930B028FCF82E00E94C31C31
:103DF0000ACE81E00E94C31C06CE80E10E94C31C53
:103E000002CE84910E94A21C2091080230910902E6
:103E1000E0910601F091070140CFCF930E94761CFC
:103E2000C82F0E94A21CC13614F0C75503C0C0336E
:103E30000CF0C0538C2F992787FD9095CF91089552
:103E40000F931F930E940D1F082F112707FD109538
:103E500002951295107F1027007F10270E940D1FDA
:103E6000800F992787FD90951F910F910895CF930B
:103E7000C82F85958595859585958A3034F0895A22
:103E8000CF70CA3034F0C95A05C0805DCF70CA30D7
:103E9000D4F7C05D0E94A21C8C2F0E94A21CCF915F
:043EA0000895FFCFB3
:023EA40080009C
:0400000300003800C1
:00000001FF
