:100000000C945C000C946E000C946E000C946E00CA
:100010000C946E000C946E000C946E000C946E00A8
:100020000C946E000C946E000C946E000C946E0098
:100030000C946E000C946E000C946E000C946E0088
:100040000C94DB000C946E000C946E000C946E000B
:100050000C946E000C946E000C946E000C946E0068
:100060000C946E000C946E00000000080002010069
:100070000003040700000000000000000000000072
:10008000250028002B0000000000240027002A0083
:10009000040404040404040402020202020203032E
:1000A0000303030301020408102040800102040836
:1000B000102001020408102011241FBECFEFD4E04D
:1000C000DEBFCDBF21E0A0E0B1E001C01D92AF30A6
:1000D000B207E1F70E9425010C94C2010C940000C4
:1000E00090E0FC01EC55FF4F2491FC01E057FF4FDD
:1000F0008491882399F090E0880F991FFC01EA57BA
:10010000FF4FA591B491FC01E458FF4F8591949164
:100110008FB7F894EC91E22BEC938FBF089590E0A9
:10012000FC01E859FF4F3491FC01EC55FF4F24913D
:10013000FC01E057FF4FE491EE2309F43BC0332369
:1001400039F1333091F038F43130A9F0323001F523
:1001500084B58F7D12C0373091F03830A1F0343043
:10016000B9F4809180008F7D03C0809180008F77EB
:10017000809380000DC084B58F7784BD09C08091C5
:10018000B0008F7703C08091B0008F7D8093B00066
:10019000F0E0EE0FFF1FE458FF4FA591B4918FB729
:1001A000F894EC91611103C020952E2301C02E2BF1
:1001B0002C938FBF08951F920F920FB60F921124A8
:1001C0002F933F938F939F93AF93BF93809105019C
:1001D00090910601A0910701B091080130910401AE
:1001E00023E0230F2D3720F40196A11DB11D05C07A
:1001F00026E8230F0296A11DB11D209304018093D0
:10020000050190930601A0930701B0930801809126
:10021000000190910101A0910201B09103010196AA
:10022000A11DB11D8093000190930101A0930201D3
:10023000B0930301BF91AF919F918F913F912F9107
:100240000F900FBE0F901F901895789484B5826020
:1002500084BD84B5816084BD85B5826085BD85B56A
:10026000816085BD80916E00816080936E001092E8
:100270008100809181008260809381008091810063
:1002800081608093810080918000816080938000F4
:100290008091B10084608093B1008091B000816052
:1002A0008093B00080917A00846080937A0080917E
:1002B0007A00826080937A0080917A0081608093D6
:1002C0007A0080917A00806880937A001092C10051
:1002D00081E00E94700080E00E94700082E00E9435
:1002E000700000E010E0EE24E394F12C2FB7F894B6
:1002F0008091050190910601A0910701B09108013C
:100300002FBF40910B0150910C0160910D01709134
:100310000E015C016D01A41AB50AC60AD70AB6011E
:10032000A5014A3F51056105710528F180930B0134
:1003300090930C01A0930D01B0930E0180910901DF
:1003400090910A01892B29F4F0920A01E0920901A7
:1003500004C010920A0110920901C09109016C2F8A
:1003600081E00E948F006C2F80E00E948F006C2F34
:1003700082E00E948F000115110509F4B7CF0E9499
:080380000000B4CFF894FFCF98
:00000001FF
